{
  "_format": "hh-sol-artifact-1",
  "contractName": "NFT",
  "sourceName": "contracts/NFT.sol",
  "abi": [
    {
      "inputs": [
        {
          "internalType": "address",
          "name": "marketplaceAddress",
          "type": "address"
        }
      ],
      "stateMutability": "nonpayable",
      "type": "constructor"
    },
    {
      "anonymous": false,
      "inputs": [
        {
          "indexed": true,
          "internalType": "address",
          "name": "owner",
          "type": "address"
        },
        {
          "indexed": true,
          "internalType": "address",
          "name": "approved",
          "type": "address"
        },
        {
          "indexed": true,
          "internalType": "uint256",
          "name": "tokenId",
          "type": "uint256"
        }
      ],
      "name": "Approval",
      "type": "event"
    },
    {
      "anonymous": false,
      "inputs": [
        {
          "indexed": true,
          "internalType": "address",
          "name": "owner",
          "type": "address"
        },
        {
          "indexed": true,
          "internalType": "address",
          "name": "operator",
          "type": "address"
        },
        {
          "indexed": false,
          "internalType": "bool",
          "name": "approved",
          "type": "bool"
        }
      ],
      "name": "ApprovalForAll",
      "type": "event"
    },
    {
      "anonymous": false,
      "inputs": [
        {
          "indexed": true,
          "internalType": "address",
          "name": "from",
          "type": "address"
        },
        {
          "indexed": true,
          "internalType": "address",
          "name": "to",
          "type": "address"
        },
        {
          "indexed": true,
          "internalType": "uint256",
          "name": "tokenId",
          "type": "uint256"
        }
      ],
      "name": "Transfer",
      "type": "event"
    },
    {
      "inputs": [
        {
          "internalType": "address",
          "name": "to",
          "type": "address"
        },
        {
          "internalType": "uint256",
          "name": "tokenId",
          "type": "uint256"
        }
      ],
      "name": "approve",
      "outputs": [],
      "stateMutability": "nonpayable",
      "type": "function"
    },
    {
      "inputs": [
        {
          "internalType": "address",
          "name": "owner",
          "type": "address"
        }
      ],
      "name": "balanceOf",
      "outputs": [
        {
          "internalType": "uint256",
          "name": "",
          "type": "uint256"
        }
      ],
      "stateMutability": "view",
      "type": "function"
    },
    {
      "inputs": [
        {
          "internalType": "string",
          "name": "tokenURI",
          "type": "string"
        }
      ],
      "name": "createToken",
      "outputs": [
        {
          "internalType": "uint256",
          "name": "",
          "type": "uint256"
        }
      ],
      "stateMutability": "nonpayable",
      "type": "function"
    },
    {
      "inputs": [
        {
          "internalType": "uint256",
          "name": "tokenId",
          "type": "uint256"
        }
      ],
      "name": "getApproved",
      "outputs": [
        {
          "internalType": "address",
          "name": "",
          "type": "address"
        }
      ],
      "stateMutability": "view",
      "type": "function"
    },
    {
      "inputs": [
        {
          "internalType": "address",
          "name": "owner",
          "type": "address"
        },
        {
          "internalType": "address",
          "name": "operator",
          "type": "address"
        }
      ],
      "name": "isApprovedForAll",
      "outputs": [
        {
          "internalType": "bool",
          "name": "",
          "type": "bool"
        }
      ],
      "stateMutability": "view",
      "type": "function"
    },
    {
      "inputs": [],
      "name": "name",
      "outputs": [
        {
          "internalType": "string",
          "name": "",
          "type": "string"
        }
      ],
      "stateMutability": "view",
      "type": "function"
    },
    {
      "inputs": [
        {
          "internalType": "uint256",
          "name": "tokenId",
          "type": "uint256"
        }
      ],
      "name": "ownerOf",
      "outputs": [
        {
          "internalType": "address",
          "name": "",
          "type": "address"
        }
      ],
      "stateMutability": "view",
      "type": "function"
    },
    {
      "inputs": [
        {
          "internalType": "address",
          "name": "from",
          "type": "address"
        },
        {
          "internalType": "address",
          "name": "to",
          "type": "address"
        },
        {
          "internalType": "uint256",
          "name": "tokenId",
          "type": "uint256"
        }
      ],
      "name": "safeTransferFrom",
      "outputs": [],
      "stateMutability": "nonpayable",
      "type": "function"
    },
    {
      "inputs": [
        {
          "internalType": "address",
          "name": "from",
          "type": "address"
        },
        {
          "internalType": "address",
          "name": "to",
          "type": "address"
        },
        {
          "internalType": "uint256",
          "name": "tokenId",
          "type": "uint256"
        },
        {
          "internalType": "bytes",
          "name": "_data",
          "type": "bytes"
        }
      ],
      "name": "safeTransferFrom",
      "outputs": [],
      "stateMutability": "nonpayable",
      "type": "function"
    },
    {
      "inputs": [
        {
          "internalType": "address",
          "name": "operator",
          "type": "address"
        },
        {
          "internalType": "bool",
          "name": "approved",
          "type": "bool"
        }
      ],
      "name": "setApprovalForAll",
      "outputs": [],
      "stateMutability": "nonpayable",
      "type": "function"
    },
    {
      "inputs": [
        {
          "internalType": "bytes4",
          "name": "interfaceId",
          "type": "bytes4"
        }
      ],
      "name": "supportsInterface",
      "outputs": [
        {
          "internalType": "bool",
          "name": "",
          "type": "bool"
        }
      ],
      "stateMutability": "view",
      "type": "function"
    },
    {
      "inputs": [],
      "name": "symbol",
      "outputs": [
        {
          "internalType": "string",
          "name": "",
          "type": "string"
        }
      ],
      "stateMutability": "view",
      "type": "function"
    },
    {
      "inputs": [
        {
          "internalType": "uint256",
          "name": "tokenId",
          "type": "uint256"
        }
      ],
      "name": "tokenURI",
      "outputs": [
        {
          "internalType": "string",
          "name": "",
          "type": "string"
        }
      ],
      "stateMutability": "view",
      "type": "function"
    },
    {
      "inputs": [
        {
          "internalType": "address",
          "name": "from",
          "type": "address"
        },
        {
          "internalType": "address",
          "name": "to",
          "type": "address"
        },
        {
          "internalType": "uint256",
          "name": "tokenId",
          "type": "uint256"
        }
      ],
      "name": "transferFrom",
      "outputs": [],
      "stateMutability": "nonpayable",
      "type": "function"
    },
    {
      "inputs": [],
      "name": "userApproval",
      "outputs": [],
      "stateMutability": "nonpayable",
      "type": "function"
    }
  ],
  "bytecode": "0x60806040523480156200001157600080fd5b50604051620018dd380380620018dd833981016040819052620000349162000165565b6040805180820182526007815266120814c813881560ca1b6020808301918252835180850190945260048452631214d39560e21b9084015281519192916200007f91600091620000bf565b50805162000095906001906020840190620000bf565b5050600880546001600160a01b0319166001600160a01b03939093169290921790915550620001d2565b828054620000cd9062000195565b90600052602060002090601f016020900481019282620000f157600085556200013c565b82601f106200010c57805160ff19168380011785556200013c565b828001600101855582156200013c579182015b828111156200013c5782518255916020019190600101906200011f565b506200014a9291506200014e565b5090565b5b808211156200014a57600081556001016200014f565b60006020828403121562000177578081fd5b81516001600160a01b03811681146200018e578182fd5b9392505050565b600181811c90821680620001aa57607f821691505b60208210811415620001cc57634e487b7160e01b600052602260045260246000fd5b50919050565b6116fb80620001e26000396000f3fe608060405234801561001057600080fd5b50600436106100f55760003560e01c80636352211e11610097578063b88d4fde11610066578063b88d4fde146101ff578063c87b56dd14610212578063cf2f1ea714610225578063e985e9c51461022d57600080fd5b80636352211e146101be57806370a08231146101d157806395d89b41146101e4578063a22cb465146101ec57600080fd5b8063095ea7b3116100d3578063095ea7b31461016257806323b872dd1461017757806342842e0e1461018a57806345576f941461019d57600080fd5b806301ffc9a7146100fa57806306fdde0314610122578063081812fc14610137575b600080fd5b61010d6101083660046113ad565b610269565b60405190151581526020015b60405180910390f35b61012a6102bb565b60405161011991906114db565b61014a61014536600461142b565b61034d565b6040516001600160a01b039091168152602001610119565b610175610170366004611384565b6103da565b005b610175610185366004611296565b6104f0565b610175610198366004611296565b610521565b6101b06101ab3660046113e5565b61053c565b604051908152602001610119565b61014a6101cc36600461142b565b610584565b6101b06101df36600461124a565b6105fb565b61012a610682565b6101756101fa36600461134a565b610691565b61017561020d3660046112d1565b610756565b61012a61022036600461142b565b61078e565b610175610905565b61010d61023b366004611264565b6001600160a01b03918216600090815260056020908152604080832093909416825291909152205460ff1690565b60006001600160e01b031982166380ac58cd60e01b148061029a57506001600160e01b03198216635b5e139f60e01b145b806102b557506301ffc9a760e01b6001600160e01b03198316145b92915050565b6060600080546102ca90611600565b80601f01602080910402602001604051908101604052809291908181526020018280546102f690611600565b80156103435780601f1061031857610100808354040283529160200191610343565b820191906000526020600020905b81548152906001019060200180831161032657829003601f168201915b5050505050905090565b60006103588261091e565b6103be5760405162461bcd60e51b815260206004820152602c60248201527f4552433732313a20617070726f76656420717565727920666f72206e6f6e657860448201526b34b9ba32b73a103a37b5b2b760a11b60648201526084015b60405180910390fd5b506000908152600460205260409020546001600160a01b031690565b60006103e582610584565b9050806001600160a01b0316836001600160a01b031614156104535760405162461bcd60e51b815260206004820152602160248201527f4552433732313a20617070726f76616c20746f2063757272656e74206f776e656044820152603960f91b60648201526084016103b5565b336001600160a01b038216148061046f575061046f813361023b565b6104e15760405162461bcd60e51b815260206004820152603860248201527f4552433732313a20617070726f76652063616c6c6572206973206e6f74206f7760448201527f6e6572206e6f7220617070726f76656420666f7220616c6c000000000000000060648201526084016103b5565b6104eb838361093b565b505050565b6104fa33826109a9565b6105165760405162461bcd60e51b81526004016103b590611540565b6104eb838383610a8f565b6104eb83838360405180602001604052806000815250610756565b600061054c600780546001019055565b600061055760075490565b90506105633382610c2f565b61056d8184610d62565b6008546102b5906001600160a01b03166001610691565b6000818152600260205260408120546001600160a01b0316806102b55760405162461bcd60e51b815260206004820152602960248201527f4552433732313a206f776e657220717565727920666f72206e6f6e657869737460448201526832b73a103a37b5b2b760b91b60648201526084016103b5565b60006001600160a01b0382166106665760405162461bcd60e51b815260206004820152602a60248201527f4552433732313a2062616c616e636520717565727920666f7220746865207a65604482015269726f206164647265737360b01b60648201526084016103b5565b506001600160a01b031660009081526003602052604090205490565b6060600180546102ca90611600565b6001600160a01b0382163314156106ea5760405162461bcd60e51b815260206004820152601960248201527f4552433732313a20617070726f766520746f2063616c6c65720000000000000060448201526064016103b5565b3360008181526005602090815260408083206001600160a01b03871680855290835292819020805460ff191686151590811790915590519081529192917f17307eab39ab6107e8899845ad3d59bd9653f200f220920489ca2b5937696c31910160405180910390a35050565b61076033836109a9565b61077c5760405162461bcd60e51b81526004016103b590611540565b61078884848484610ded565b50505050565b60606107998261091e565b6107ff5760405162461bcd60e51b815260206004820152603160248201527f45524337323155524953746f726167653a2055524920717565727920666f72206044820152703737b732bc34b9ba32b73a103a37b5b2b760791b60648201526084016103b5565b6000828152600660205260408120805461081890611600565b80601f016020809104026020016040519081016040528092919081815260200182805461084490611600565b80156108915780601f1061086657610100808354040283529160200191610891565b820191906000526020600020905b81548152906001019060200180831161087457829003601f168201915b5050505050905060006108af60408051602081019091526000815290565b90508051600014156108c2575092915050565b8151156108f45780826040516020016108dc92919061146f565b60405160208183030381529060405292505050919050565b6108fd84610e20565b949350505050565b60085461091c906001600160a01b03166001610691565b565b6000908152600260205260409020546001600160a01b0316151590565b600081815260046020526040902080546001600160a01b0319166001600160a01b038416908117909155819061097082610584565b6001600160a01b03167f8c5be1e5ebec7d5bd14f71427d1e84f3dd0314c0f7b2291e5b200ac8c7c3b92560405160405180910390a45050565b60006109b48261091e565b610a155760405162461bcd60e51b815260206004820152602c60248201527f4552433732313a206f70657261746f7220717565727920666f72206e6f6e657860448201526b34b9ba32b73a103a37b5b2b760a11b60648201526084016103b5565b6000610a2083610584565b9050806001600160a01b0316846001600160a01b03161480610a5b5750836001600160a01b0316610a508461034d565b6001600160a01b0316145b806108fd57506001600160a01b0380821660009081526005602090815260408083209388168352929052205460ff166108fd565b826001600160a01b0316610aa282610584565b6001600160a01b031614610b0a5760405162461bcd60e51b815260206004820152602960248201527f4552433732313a207472616e73666572206f6620746f6b656e2074686174206960448201526839903737ba1037bbb760b91b60648201526084016103b5565b6001600160a01b038216610b6c5760405162461bcd60e51b8152602060048201526024808201527f4552433732313a207472616e7366657220746f20746865207a65726f206164646044820152637265737360e01b60648201526084016103b5565b610b7760008261093b565b6001600160a01b0383166000908152600360205260408120805460019290610ba09084906115bd565b90915550506001600160a01b0382166000908152600360205260408120805460019290610bce908490611591565b909155505060008181526002602052604080822080546001600160a01b0319166001600160a01b0386811691821790925591518493918716917fddf252ad1be2c89b69c2b068fc378daa952ba7f163c4a11628f55a4df523b3ef91a4505050565b6001600160a01b038216610c855760405162461bcd60e51b815260206004820181905260248201527f4552433732313a206d696e7420746f20746865207a65726f206164647265737360448201526064016103b5565b610c8e8161091e565b15610cdb5760405162461bcd60e51b815260206004820152601c60248201527f4552433732313a20746f6b656e20616c7265616479206d696e7465640000000060448201526064016103b5565b6001600160a01b0382166000908152600360205260408120805460019290610d04908490611591565b909155505060008181526002602052604080822080546001600160a01b0319166001600160a01b03861690811790915590518392907fddf252ad1be2c89b69c2b068fc378daa952ba7f163c4a11628f55a4df523b3ef908290a45050565b610d6b8261091e565b610dce5760405162461bcd60e51b815260206004820152602e60248201527f45524337323155524953746f726167653a2055524920736574206f66206e6f6e60448201526d32bc34b9ba32b73a103a37b5b2b760911b60648201526084016103b5565b600082815260066020908152604090912082516104eb9284019061111f565b610df8848484610a8f565b610e0484848484610ef8565b6107885760405162461bcd60e51b81526004016103b5906114ee565b6060610e2b8261091e565b610e8f5760405162461bcd60e51b815260206004820152602f60248201527f4552433732314d657461646174613a2055524920717565727920666f72206e6f60448201526e3732bc34b9ba32b73a103a37b5b2b760891b60648201526084016103b5565b6000610ea660408051602081019091526000815290565b90506000815111610ec65760405180602001604052806000815250610ef1565b80610ed084611005565b604051602001610ee192919061146f565b6040516020818303038152906040525b9392505050565b60006001600160a01b0384163b15610ffa57604051630a85bd0160e11b81526001600160a01b0385169063150b7a0290610f3c90339089908890889060040161149e565b602060405180830381600087803b158015610f5657600080fd5b505af1925050508015610f86575060408051601f3d908101601f19168201909252610f83918101906113c9565b60015b610fe0573d808015610fb4576040519150601f19603f3d011682016040523d82523d6000602084013e610fb9565b606091505b508051610fd85760405162461bcd60e51b81526004016103b5906114ee565b805181602001fd5b6001600160e01b031916630a85bd0160e11b1490506108fd565b506001949350505050565b6060816110295750506040805180820190915260018152600360fc1b602082015290565b8160005b8115611053578061103d8161163b565b915061104c9050600a836115a9565b915061102d565b60008167ffffffffffffffff81111561107c57634e487b7160e01b600052604160045260246000fd5b6040519080825280601f01601f1916602001820160405280156110a6576020820181803683370190505b5090505b84156108fd576110bb6001836115bd565b91506110c8600a86611656565b6110d3906030611591565b60f81b8183815181106110f657634e487b7160e01b600052603260045260246000fd5b60200101906001600160f81b031916908160001a905350611118600a866115a9565b94506110aa565b82805461112b90611600565b90600052602060002090601f01602090048101928261114d5760008555611193565b82601f1061116657805160ff1916838001178555611193565b82800160010185558215611193579182015b82811115611193578251825591602001919060010190611178565b5061119f9291506111a3565b5090565b5b8082111561119f57600081556001016111a4565b600067ffffffffffffffff808411156111d3576111d3611696565b604051601f8501601f19908116603f011681019082821181831017156111fb576111fb611696565b8160405280935085815286868601111561121457600080fd5b858560208301376000602087830101525050509392505050565b80356001600160a01b038116811461124557600080fd5b919050565b60006020828403121561125b578081fd5b610ef18261122e565b60008060408385031215611276578081fd5b61127f8361122e565b915061128d6020840161122e565b90509250929050565b6000806000606084860312156112aa578081fd5b6112b38461122e565b92506112c16020850161122e565b9150604084013590509250925092565b600080600080608085870312156112e6578081fd5b6112ef8561122e565b93506112fd6020860161122e565b925060408501359150606085013567ffffffffffffffff81111561131f578182fd5b8501601f8101871361132f578182fd5b61133e878235602084016111b8565b91505092959194509250565b6000806040838503121561135c578182fd5b6113658361122e565b915060208301358015158114611379578182fd5b809150509250929050565b60008060408385031215611396578182fd5b61139f8361122e565b946020939093013593505050565b6000602082840312156113be578081fd5b8135610ef1816116ac565b6000602082840312156113da578081fd5b8151610ef1816116ac565b6000602082840312156113f6578081fd5b813567ffffffffffffffff81111561140c578182fd5b8201601f8101841361141c578182fd5b6108fd848235602084016111b8565b60006020828403121561143c578081fd5b5035919050565b6000815180845261145b8160208601602086016115d4565b601f01601f19169290920160200192915050565b600083516114818184602088016115d4565b8351908301906114958183602088016115d4565b01949350505050565b6001600160a01b03858116825284166020820152604081018390526080606082018190526000906114d190830184611443565b9695505050505050565b602081526000610ef16020830184611443565b60208082526032908201527f4552433732313a207472616e7366657220746f206e6f6e20455243373231526560408201527131b2b4bb32b91034b6b83632b6b2b73a32b960711b606082015260800190565b60208082526031908201527f4552433732313a207472616e736665722063616c6c6572206973206e6f74206f6040820152701ddb995c881b9bdc88185c1c1c9bdd9959607a1b606082015260800190565b600082198211156115a4576115a461166a565b500190565b6000826115b8576115b8611680565b500490565b6000828210156115cf576115cf61166a565b500390565b60005b838110156115ef5781810151838201526020016115d7565b838111156107885750506000910152565b600181811c9082168061161457607f821691505b6020821081141561163557634e487b7160e01b600052602260045260246000fd5b50919050565b600060001982141561164f5761164f61166a565b5060010190565b60008261166557611665611680565b500690565b634e487b7160e01b600052601160045260246000fd5b634e487b7160e01b600052601260045260246000fd5b634e487b7160e01b600052604160045260246000fd5b6001600160e01b0319811681146116c257600080fd5b5056fea26469706673582212209713057d1deb1bf68f8fa00e4cd84c3748f18185f6a608d9ee8392a70aca6db264736f6c63430008040033",
  "linkReferences": {},
  "deployedLinkReferences": {}
}