{
  "_format": "hh-sol-artifact-1",
  "contractName": "NFTMarket",
  "sourceName": "contracts/Market.sol",
  "abi": [
    {
      "inputs": [],
      "stateMutability": "nonpayable",
      "type": "constructor"
    },
    {
      "anonymous": false,
      "inputs": [
        {
          "indexed": true,
          "internalType": "uint256",
          "name": "itemId",
          "type": "uint256"
        },
        {
          "indexed": true,
          "internalType": "address",
          "name": "nftContract",
          "type": "address"
        },
        {
          "indexed": true,
          "internalType": "uint256",
          "name": "tokenId",
          "type": "uint256"
        },
        {
          "indexed": false,
          "internalType": "address",
          "name": "seller",
          "type": "address"
        },
        {
          "indexed": false,
          "internalType": "address",
          "name": "owner",
          "type": "address"
        },
        {
          "indexed": false,
          "internalType": "uint256",
          "name": "price",
          "type": "uint256"
        },
        {
          "indexed": false,
          "internalType": "bool",
          "name": "sold",
          "type": "bool"
        }
      ],
      "name": "MarketItemCreated",
      "type": "event"
    },
    {
      "inputs": [
        {
          "internalType": "address",
          "name": "nftContract",
          "type": "address"
        },
        {
          "internalType": "uint256",
          "name": "tokenId",
          "type": "uint256"
        },
        {
          "internalType": "uint256",
          "name": "price",
          "type": "uint256"
        }
      ],
      "name": "createMarketItem",
      "outputs": [],
      "stateMutability": "payable",
      "type": "function"
    },
    {
      "inputs": [
        {
          "internalType": "address",
          "name": "nftContract",
          "type": "address"
        },
        {
          "internalType": "uint256",
          "name": "itemId",
          "type": "uint256"
        }
      ],
      "name": "createMarketSale",
      "outputs": [],
      "stateMutability": "payable",
      "type": "function"
    },
    {
      "inputs": [
        {
          "internalType": "uint256",
          "name": "itemId",
          "type": "uint256"
        }
      ],
      "name": "fetchDetailItem",
      "outputs": [
        {
          "components": [
            {
              "internalType": "uint256",
              "name": "itemId",
              "type": "uint256"
            },
            {
              "internalType": "address",
              "name": "nftContract",
              "type": "address"
            },
            {
              "internalType": "uint256",
              "name": "tokenId",
              "type": "uint256"
            },
            {
              "internalType": "address payable",
              "name": "seller",
              "type": "address"
            },
            {
              "internalType": "address payable",
              "name": "owner",
              "type": "address"
            },
            {
              "internalType": "uint256",
              "name": "price",
              "type": "uint256"
            },
            {
              "internalType": "bool",
              "name": "sold",
              "type": "bool"
            }
          ],
          "internalType": "struct NFTMarket.MarketItem",
          "name": "",
          "type": "tuple"
        }
      ],
      "stateMutability": "view",
      "type": "function"
    },
    {
      "inputs": [],
      "name": "fetchItemsCreated",
      "outputs": [
        {
          "components": [
            {
              "internalType": "uint256",
              "name": "itemId",
              "type": "uint256"
            },
            {
              "internalType": "address",
              "name": "nftContract",
              "type": "address"
            },
            {
              "internalType": "uint256",
              "name": "tokenId",
              "type": "uint256"
            },
            {
              "internalType": "address payable",
              "name": "seller",
              "type": "address"
            },
            {
              "internalType": "address payable",
              "name": "owner",
              "type": "address"
            },
            {
              "internalType": "uint256",
              "name": "price",
              "type": "uint256"
            },
            {
              "internalType": "bool",
              "name": "sold",
              "type": "bool"
            }
          ],
          "internalType": "struct NFTMarket.MarketItem[]",
          "name": "",
          "type": "tuple[]"
        }
      ],
      "stateMutability": "view",
      "type": "function"
    },
    {
      "inputs": [],
      "name": "fetchMarketItems",
      "outputs": [
        {
          "components": [
            {
              "internalType": "uint256",
              "name": "itemId",
              "type": "uint256"
            },
            {
              "internalType": "address",
              "name": "nftContract",
              "type": "address"
            },
            {
              "internalType": "uint256",
              "name": "tokenId",
              "type": "uint256"
            },
            {
              "internalType": "address payable",
              "name": "seller",
              "type": "address"
            },
            {
              "internalType": "address payable",
              "name": "owner",
              "type": "address"
            },
            {
              "internalType": "uint256",
              "name": "price",
              "type": "uint256"
            },
            {
              "internalType": "bool",
              "name": "sold",
              "type": "bool"
            }
          ],
          "internalType": "struct NFTMarket.MarketItem[]",
          "name": "",
          "type": "tuple[]"
        }
      ],
      "stateMutability": "view",
      "type": "function"
    },
    {
      "inputs": [],
      "name": "fetchMyNFTs",
      "outputs": [
        {
          "components": [
            {
              "internalType": "uint256",
              "name": "itemId",
              "type": "uint256"
            },
            {
              "internalType": "address",
              "name": "nftContract",
              "type": "address"
            },
            {
              "internalType": "uint256",
              "name": "tokenId",
              "type": "uint256"
            },
            {
              "internalType": "address payable",
              "name": "seller",
              "type": "address"
            },
            {
              "internalType": "address payable",
              "name": "owner",
              "type": "address"
            },
            {
              "internalType": "uint256",
              "name": "price",
              "type": "uint256"
            },
            {
              "internalType": "bool",
              "name": "sold",
              "type": "bool"
            }
          ],
          "internalType": "struct NFTMarket.MarketItem[]",
          "name": "",
          "type": "tuple[]"
        }
      ],
      "stateMutability": "view",
      "type": "function"
    },
    {
      "inputs": [],
      "name": "getListingPrice",
      "outputs": [
        {
          "internalType": "uint256",
          "name": "",
          "type": "uint256"
        }
      ],
      "stateMutability": "view",
      "type": "function"
    }
  ],
  "bytecode": "0x60806040526658d15e1762800060045534801561001b57600080fd5b506001600055600380546001600160a01b03191633179055610e03806100426000396000f3fe6080604052600436106100705760003560e01c806358eb2df51161004e57806358eb2df5146100d3578063627024c8146100e8578063c23b139e14610115578063f064c32e1461012857600080fd5b80630f08efe01461007557806312e85585146100a0578063202e3740146100be575b600080fd5b34801561008157600080fd5b5061008a61013d565b6040516100979190610d0b565b60405180910390f35b3480156100ac57600080fd5b50600454604051908152602001610097565b3480156100ca57600080fd5b5061008a6102e5565b6100e66100e1366004610c6b565b6104cb565b005b3480156100f457600080fd5b50610108610103366004610c9d565b61076b565b6040516100979190610d59565b6100e6610123366004610c42565b6107e8565b34801561013457600080fd5b5061008a610a04565b6060600061014a60015490565b9050600061015760025490565b6001546101649190610d85565b90506000808267ffffffffffffffff81111561019057634e487b7160e01b600052604160045260246000fd5b6040519080825280602002602001820160405280156101c957816020015b6101b6610bea565b8152602001906001900390816101ae5790505b50905060005b848110156102dc5760006005816101e7846001610d6d565b81526020810191909152604001600020600401546001600160a01b031614156102ca576000610217826001610d6d565b600081815260056020818152604092839020835160e0810185528154815260018201546001600160a01b0390811693820193909352600282015494810194909452600381015482166060850152600481015490911660808401529081015460a0830152600681015460ff16151560c08301528551929350918590879081106102af57634e487b7160e01b600052603260045260246000fd5b60209081029190910101526102c5600186610d6d565b945050505b806102d481610d9c565b9150506101cf565b50949350505050565b606060006102f260015490565b905060008060005b83811015610355573360056000610312846001610d6d565b81526020810191909152604001600020600401546001600160a01b0316141561034357610340600184610d6d565b92505b8061034d81610d9c565b9150506102fa565b5060008267ffffffffffffffff81111561037f57634e487b7160e01b600052604160045260246000fd5b6040519080825280602002602001820160405280156103b857816020015b6103a5610bea565b81526020019060019003908161039d5790505b50905060005b848110156102dc5733600560006103d6846001610d6d565b81526020810191909152604001600020600401546001600160a01b031614156104b9576000610406826001610d6d565b600081815260056020818152604092839020835160e0810185528154815260018201546001600160a01b0390811693820193909352600282015494810194909452600381015482166060850152600481015490911660808401529081015460a0830152600681015460ff16151560c083015285519293509185908790811061049e57634e487b7160e01b600052603260045260246000fd5b60209081029190910101526104b4600186610d6d565b945050505b806104c381610d9c565b9150506103be565b600260005414156105235760405162461bcd60e51b815260206004820152601f60248201527f5265656e7472616e637947756172643a207265656e7472616e742063616c6c0060448201526064015b60405180910390fd5b6002600055806105755760405162461bcd60e51b815260206004820152601c60248201527f5072696365206d757374206265206174206c6561737420312077656900000000604482015260640161051a565b60045434146105d25760405162461bcd60e51b8152602060048201526024808201527f5072696365206d75737420626520657175616c20746f206c697374696e6720706044820152637269636560e01b606482015260840161051a565b6105e0600180546001019055565b60006105eb60015490565b6040805160e0810182528281526001600160a01b0387811660208084018281528486018a8152336060870181815260006080890181815260a08a018e815260c08b018381528d8452600598899052928c90209a518b55955160018b018054918b166001600160a01b0319928316179055945160028b0155915160038a018054918a1691861691909117905590516004808a01805492909916919094161790965591519286019290925592516006909401805494151560ff199095169490941790935592516323b872dd60e01b81529182015230602482015260448101869052919250906323b872dd90606401600060405180830381600087803b1580156106f157600080fd5b505af1158015610705573d6000803e3d6000fd5b505060408051338152600060208201819052818301879052606082015290518693506001600160a01b038816925084917f045dfa01dcba2b36aba1d3dc4a874f4b0c5d2fbeb8d2c4b34a7d88c8d8f929d1919081900360800190a4505060016000555050565b610773610bea565b50600090815260056020818152604092839020835160e0810185528154815260018201546001600160a01b0390811693820193909352600282015494810194909452600381015482166060850152600481015490911660808401529081015460a08301526006015460ff16151560c082015290565b6002600054141561083b5760405162461bcd60e51b815260206004820152601f60248201527f5265656e7472616e637947756172643a207265656e7472616e742063616c6c00604482015260640161051a565b60026000818155828152600560208190526040909120908101549101543482146108cf576040805162461bcd60e51b81526020600482015260248101919091527f506c65617365207375626d6974207468652061736b696e67207072696365206960448201527f6e206f7264657220746f20636f6d706c65746520746865207075726368617365606482015260840161051a565b6000838152600560205260408082206003015490516001600160a01b03909116913480156108fc02929091818181858888f19350505050158015610917573d6000803e3d6000fd5b506040516323b872dd60e01b8152306004820152336024820152604481018290526001600160a01b038516906323b872dd90606401600060405180830381600087803b15801561096657600080fd5b505af115801561097a573d6000803e3d6000fd5b50505060008481526005602052604090206004810180546001600160a01b03191633179055600601805460ff19166001179055506109bc600280546001019055565b6003546004546040516001600160a01b039092169181156108fc0291906000818181858888f193505050501580156109f8573d6000803e3d6000fd5b50506001600055505050565b60606000610a1160015490565b905060008060005b83811015610a74573360056000610a31846001610d6d565b81526020810191909152604001600020600301546001600160a01b03161415610a6257610a5f600184610d6d565b92505b80610a6c81610d9c565b915050610a19565b5060008267ffffffffffffffff811115610a9e57634e487b7160e01b600052604160045260246000fd5b604051908082528060200260200182016040528015610ad757816020015b610ac4610bea565b815260200190600190039081610abc5790505b50905060005b848110156102dc573360056000610af5846001610d6d565b81526020810191909152604001600020600301546001600160a01b03161415610bd8576000610b25826001610d6d565b600081815260056020818152604092839020835160e0810185528154815260018201546001600160a01b0390811693820193909352600282015494810194909452600381015482166060850152600481015490911660808401529081015460a0830152600681015460ff16151560c0830152855192935091859087908110610bbd57634e487b7160e01b600052603260045260246000fd5b6020908102919091010152610bd3600186610d6d565b945050505b80610be281610d9c565b915050610add565b6040805160e081018252600080825260208201819052918101829052606081018290526080810182905260a0810182905260c081019190915290565b80356001600160a01b0381168114610c3d57600080fd5b919050565b60008060408385031215610c54578182fd5b610c5d83610c26565b946020939093013593505050565b600080600060608486031215610c7f578081fd5b610c8884610c26565b95602085013595506040909401359392505050565b600060208284031215610cae578081fd5b5035919050565b80518252602081015160018060a01b03808216602085015260408301516040850152806060840151166060850152806080840151166080850152505060a081015160a083015260c0810151151560c08301525050565b6020808252825182820181905260009190848201906040850190845b81811015610d4d57610d3a838551610cb5565b9284019260e09290920191600101610d27565b50909695505050505050565b60e08101610d678284610cb5565b92915050565b60008219821115610d8057610d80610db7565b500190565b600082821015610d9757610d97610db7565b500390565b6000600019821415610db057610db0610db7565b5060010190565b634e487b7160e01b600052601160045260246000fdfea2646970667358221220f00a54f3d3f91e32b29f88e61c2a6fea0a98f94b7a17bcd9f6da52524632e58864736f6c63430008040033",
  "linkReferences": {},
  "deployedLinkReferences": {}
}