{
  "_format": "hh-sol-artifact-1",
  "contractName": "NFTMarket",
  "sourceName": "contracts/Market.sol",
  "abi": [
    {
      "inputs": [],
      "stateMutability": "nonpayable",
      "type": "constructor"
    },
    {
      "anonymous": false,
      "inputs": [
        {
          "indexed": true,
          "internalType": "uint256",
          "name": "itemId",
          "type": "uint256"
        },
        {
          "indexed": true,
          "internalType": "address",
          "name": "nftContract",
          "type": "address"
        },
        {
          "indexed": true,
          "internalType": "uint256",
          "name": "tokenId",
          "type": "uint256"
        },
        {
          "indexed": false,
          "internalType": "address",
          "name": "seller",
          "type": "address"
        },
        {
          "indexed": false,
          "internalType": "address",
          "name": "owner",
          "type": "address"
        },
        {
          "indexed": false,
          "internalType": "uint256",
          "name": "price",
          "type": "uint256"
        },
        {
          "indexed": false,
          "internalType": "bool",
          "name": "sold",
          "type": "bool"
        }
      ],
      "name": "MarketItemCreated",
      "type": "event"
    },
    {
      "inputs": [
        {
          "internalType": "address",
          "name": "nftContract",
          "type": "address"
        },
        {
          "internalType": "uint256",
          "name": "tokenId",
          "type": "uint256"
        },
        {
          "internalType": "uint256",
          "name": "price",
          "type": "uint256"
        }
      ],
      "name": "createMarketItem",
      "outputs": [],
      "stateMutability": "payable",
      "type": "function"
    },
    {
      "inputs": [
        {
          "internalType": "address",
          "name": "nftContract",
          "type": "address"
        },
        {
          "internalType": "uint256",
          "name": "itemId",
          "type": "uint256"
        }
      ],
      "name": "createMarketSale",
      "outputs": [],
      "stateMutability": "payable",
      "type": "function"
    },
    {
      "inputs": [
        {
          "internalType": "uint256",
          "name": "itemId",
          "type": "uint256"
        }
      ],
      "name": "fetchDetailItem",
      "outputs": [
        {
          "components": [
            {
              "internalType": "uint256",
              "name": "itemId",
              "type": "uint256"
            },
            {
              "internalType": "address",
              "name": "nftContract",
              "type": "address"
            },
            {
              "internalType": "uint256",
              "name": "tokenId",
              "type": "uint256"
            },
            {
              "internalType": "address payable",
              "name": "seller",
              "type": "address"
            },
            {
              "internalType": "address payable",
              "name": "owner",
              "type": "address"
            },
            {
              "internalType": "uint256",
              "name": "price",
              "type": "uint256"
            },
            {
              "internalType": "bool",
              "name": "sold",
              "type": "bool"
            }
          ],
          "internalType": "struct NFTMarket.MarketItem",
          "name": "",
          "type": "tuple"
        }
      ],
      "stateMutability": "view",
      "type": "function"
    },
    {
      "inputs": [],
      "name": "fetchItemsCreated",
      "outputs": [
        {
          "components": [
            {
              "internalType": "uint256",
              "name": "itemId",
              "type": "uint256"
            },
            {
              "internalType": "address",
              "name": "nftContract",
              "type": "address"
            },
            {
              "internalType": "uint256",
              "name": "tokenId",
              "type": "uint256"
            },
            {
              "internalType": "address payable",
              "name": "seller",
              "type": "address"
            },
            {
              "internalType": "address payable",
              "name": "owner",
              "type": "address"
            },
            {
              "internalType": "uint256",
              "name": "price",
              "type": "uint256"
            },
            {
              "internalType": "bool",
              "name": "sold",
              "type": "bool"
            }
          ],
          "internalType": "struct NFTMarket.MarketItem[]",
          "name": "",
          "type": "tuple[]"
        }
      ],
      "stateMutability": "view",
      "type": "function"
    },
    {
      "inputs": [],
      "name": "fetchMarketItems",
      "outputs": [
        {
          "components": [
            {
              "internalType": "uint256",
              "name": "itemId",
              "type": "uint256"
            },
            {
              "internalType": "address",
              "name": "nftContract",
              "type": "address"
            },
            {
              "internalType": "uint256",
              "name": "tokenId",
              "type": "uint256"
            },
            {
              "internalType": "address payable",
              "name": "seller",
              "type": "address"
            },
            {
              "internalType": "address payable",
              "name": "owner",
              "type": "address"
            },
            {
              "internalType": "uint256",
              "name": "price",
              "type": "uint256"
            },
            {
              "internalType": "bool",
              "name": "sold",
              "type": "bool"
            }
          ],
          "internalType": "struct NFTMarket.MarketItem[]",
          "name": "",
          "type": "tuple[]"
        }
      ],
      "stateMutability": "view",
      "type": "function"
    },
    {
      "inputs": [],
      "name": "fetchMyNFTs",
      "outputs": [
        {
          "components": [
            {
              "internalType": "uint256",
              "name": "itemId",
              "type": "uint256"
            },
            {
              "internalType": "address",
              "name": "nftContract",
              "type": "address"
            },
            {
              "internalType": "uint256",
              "name": "tokenId",
              "type": "uint256"
            },
            {
              "internalType": "address payable",
              "name": "seller",
              "type": "address"
            },
            {
              "internalType": "address payable",
              "name": "owner",
              "type": "address"
            },
            {
              "internalType": "uint256",
              "name": "price",
              "type": "uint256"
            },
            {
              "internalType": "bool",
              "name": "sold",
              "type": "bool"
            }
          ],
          "internalType": "struct NFTMarket.MarketItem[]",
          "name": "",
          "type": "tuple[]"
        }
      ],
      "stateMutability": "view",
      "type": "function"
    },
    {
      "inputs": [],
      "name": "getListingPrice",
      "outputs": [
        {
          "internalType": "uint256",
          "name": "",
          "type": "uint256"
        }
      ],
      "stateMutability": "view",
      "type": "function"
    },
    {
      "inputs": [
        {
          "internalType": "address",
          "name": "nftContract",
          "type": "address"
        },
        {
          "internalType": "uint256",
          "name": "itemId",
          "type": "uint256"
        },
        {
          "internalType": "uint256",
          "name": "price",
          "type": "uint256"
        }
      ],
      "name": "reCreateMarketItem",
      "outputs": [],
      "stateMutability": "payable",
      "type": "function"
    }
  ],
  "bytecode": "0x60806040526658d15e1762800060045534801561001b57600080fd5b506001600055600380546001600160a01b0319163317905561104d806100426000396000f3fe60806040526004361061007b5760003560e01c806358eb2df51161004e57806358eb2df5146100f3578063627024c814610106578063c23b139e14610133578063f064c32e1461014657600080fd5b80630f08efe01461008057806312e85585146100ab5780631c417593146100c9578063202e3740146100de575b600080fd5b34801561008c57600080fd5b5061009561015b565b6040516100a29190610f09565b60405180910390f35b3480156100b757600080fd5b506004546040519081526020016100a2565b6100dc6100d7366004610e67565b610303565b005b3480156100ea57600080fd5b5061009561051e565b6100dc610101366004610e67565b610704565b34801561011257600080fd5b50610126610121366004610e9b565b610912565b6040516100a29190610f8e565b6100dc610141366004610e3c565b61098f565b34801561015257600080fd5b50610095610b34565b6060600061016860015490565b9050600061017560025490565b6001546101829190610fba565b90506000808267ffffffffffffffff8111156101ae57634e487b7160e01b600052604160045260246000fd5b6040519080825280602002602001820160405280156101e757816020015b6101d4610ddd565b8152602001906001900390816101cc5790505b50905060005b848110156102fa576000600581610205846001610fa2565b81526020810191909152604001600020600401546001600160a01b031614156102e8576000610235826001610fa2565b600081815260056020818152604092839020835160e0810185528154815260018201546001600160a01b0390811693820193909352600282015494810194909452600381015482166060850152600481015490911660808401529081015460a0830152600681015460ff16151560c08301528551929350918590879081106102cd57634e487b7160e01b600052603260045260246000fd5b60209081029190910101526102e3600186610fa2565b945050505b806102f281610fd1565b9150506101ed565b50949350505050565b6002600054141561032f5760405162461bcd60e51b815260040161032690610f57565b60405180910390fd5b6002600055806103815760405162461bcd60e51b815260206004820152601c60248201527f5072696365206d757374206265206174206c65617374203120776569000000006044820152606401610326565b60008281526005602052604090206002015461039c33610d1a565b6040516331a9108f60e11b8152600481018290526001600160a01b03851690636352211e9060240160206040518083038186803b1580156103dc57600080fd5b505afa1580156103f0573d6000803e3d6000fd5b505050506040513d601f19601f820116820180604052508101906104149190610e19565b6001600160a01b0316336001600160a01b0316146104605760405162461bcd60e51b81526020600482015260096024820152682727aa1027aba722a960b91b6044820152606401610326565b6040516323b872dd60e01b8152336004820152306024820152604481018290526001600160a01b038516906323b872dd90606401600060405180830381600087803b1580156104ae57600080fd5b505af11580156104c2573d6000803e3d6000fd5b50505060008481526005602081905260409091206003810180546001600160a01b03199081163317909155600482018054909116905560068101805460ff1916905501839055506105136002610d65565b505060016000555050565b6060600061052b60015490565b905060008060005b8381101561058e57336005600061054b846001610fa2565b81526020810191909152604001600020600401546001600160a01b0316141561057c57610579600184610fa2565b92505b8061058681610fd1565b915050610533565b5060008267ffffffffffffffff8111156105b857634e487b7160e01b600052604160045260246000fd5b6040519080825280602002602001820160405280156105f157816020015b6105de610ddd565b8152602001906001900390816105d65790505b50905060005b848110156102fa57336005600061060f846001610fa2565b81526020810191909152604001600020600401546001600160a01b031614156106f257600061063f826001610fa2565b600081815260056020818152604092839020835160e0810185528154815260018201546001600160a01b0390811693820193909352600282015494810194909452600381015482166060850152600481015490911660808401529081015460a0830152600681015460ff16151560c08301528551929350918590879081106106d757634e487b7160e01b600052603260045260246000fd5b60209081029190910101526106ed600186610fa2565b945050505b806106fc81610fd1565b9150506105f7565b600260005414156107275760405162461bcd60e51b815260040161032690610f57565b6002600055806107795760405162461bcd60e51b815260206004820152601c60248201527f5072696365206d757374206265206174206c65617374203120776569000000006044820152606401610326565b610787600180546001019055565b600061079260015490565b6040805160e0810182528281526001600160a01b0387811660208084018281528486018a8152336060870181815260006080890181815260a08a018e815260c08b018381528d8452600598899052928c90209a518b55955160018b018054918b166001600160a01b0319928316179055945160028b0155915160038a018054918a1691861691909117905590516004808a01805492909916919094161790965591519286019290925592516006909401805494151560ff199095169490941790935592516323b872dd60e01b81529182015230602482015260448101869052919250906323b872dd90606401600060405180830381600087803b15801561089857600080fd5b505af11580156108ac573d6000803e3d6000fd5b505060408051338152600060208201819052818301879052606082015290518693506001600160a01b038816925084917f045dfa01dcba2b36aba1d3dc4a874f4b0c5d2fbeb8d2c4b34a7d88c8d8f929d1919081900360800190a4505060016000555050565b61091a610ddd565b50600090815260056020818152604092839020835160e0810185528154815260018201546001600160a01b0390811693820193909352600282015494810194909452600381015482166060850152600481015490911660808401529081015460a08301526006015460ff16151560c082015290565b600260005414156109b25760405162461bcd60e51b815260040161032690610f57565b600260008181558281526005602081905260409091209081015491015434821115610a47576040805162461bcd60e51b81526020600482015260248101919091527f506c65617365207375626d6974207468652061736b696e67207072696365206960448201527f6e206f7264657220746f20636f6d706c657465207468652070757263686173656064820152608401610326565b6000838152600560205260408082206003015490516001600160a01b03909116913480156108fc02929091818181858888f19350505050158015610a8f573d6000803e3d6000fd5b506040516323b872dd60e01b8152306004820152336024820152604481018290526001600160a01b038516906323b872dd90606401600060405180830381600087803b158015610ade57600080fd5b505af1158015610af2573d6000803e3d6000fd5b50505060008481526005602052604090206004810180546001600160a01b03191633179055600601805460ff1916600117905550610513600280546001019055565b60606000610b4160015490565b905060008060005b83811015610ba4573360056000610b61846001610fa2565b81526020810191909152604001600020600301546001600160a01b03161415610b9257610b8f600184610fa2565b92505b80610b9c81610fd1565b915050610b49565b5060008267ffffffffffffffff811115610bce57634e487b7160e01b600052604160045260246000fd5b604051908082528060200260200182016040528015610c0757816020015b610bf4610ddd565b815260200190600190039081610bec5790505b50905060005b848110156102fa573360056000610c25846001610fa2565b81526020810191909152604001600020600301546001600160a01b03161415610d08576000610c55826001610fa2565b600081815260056020818152604092839020835160e0810185528154815260018201546001600160a01b0390811693820193909352600282015494810194909452600381015482166060850152600481015490911660808401529081015460a0830152600681015460ff16151560c0830152855192935091859087908110610ced57634e487b7160e01b600052603260045260246000fd5b6020908102919091010152610d03600186610fa2565b945050505b80610d1281610fd1565b915050610c0d565b6040516001600160a01b0382166024820152610d629060440160408051601f198184030181529190526020810180516001600160e01b031663161765e160e11b179052610dbc565b50565b805480610db45760405162461bcd60e51b815260206004820152601b60248201527f436f756e7465723a2064656372656d656e74206f766572666c6f7700000000006044820152606401610326565b600019019055565b80516a636f6e736f6c652e6c6f67602083016000808483855afa5050505050565b6040805160e081018252600080825260208201819052918101829052606081018290526080810182905260a0810182905260c081019190915290565b600060208284031215610e2a578081fd5b8151610e3581611002565b9392505050565b60008060408385031215610e4e578081fd5b8235610e5981611002565b946020939093013593505050565b600080600060608486031215610e7b578081fd5b8335610e8681611002565b95602085013595506040909401359392505050565b600060208284031215610eac578081fd5b5035919050565b80518252602081015160018060a01b03808216602085015260408301516040850152806060840151166060850152806080840151166080850152505060a081015160a083015260c0810151151560c08301525050565b6020808252825182820181905260009190848201906040850190845b81811015610f4b57610f38838551610eb3565b9284019260e09290920191600101610f25565b50909695505050505050565b6020808252601f908201527f5265656e7472616e637947756172643a207265656e7472616e742063616c6c00604082015260600190565b60e08101610f9c8284610eb3565b92915050565b60008219821115610fb557610fb5610fec565b500190565b600082821015610fcc57610fcc610fec565b500390565b6000600019821415610fe557610fe5610fec565b5060010190565b634e487b7160e01b600052601160045260246000fd5b6001600160a01b0381168114610d6257600080fdfea26469706673582212203dadedd2924e399a042c78e774c1b290480394d57cba3e4aefc715699bd37dc864736f6c63430008040033",
  "linkReferences": {},
  "deployedLinkReferences": {}
}